:020000040800F2
:10000000080C002065010008930300087B0300082A
:10001000890300084F020008970A0008000000004A
:100020000000000000000000000000003D06000885
:100030006702000800000000490400087D01000874
:100040007F0100087F0100087F0100087F01000890
:100050007F0100087F0100087F0100087F01000880
:100060007F0100087F0100087F0100087F01000870
:100070007F0100087F0100087F0100087F01000860
:100080007F0100087F0100087F0100087F01000850
:100090007F0100087F0100087F0100087F01000840
:1000A0007F0100087F0100087F0100087F01000830
:1000B0007F0100087F0100087F0100087F01000820
:1000C0007F0100087F0100087F0100087F01000810
:1000D0007F0100081D0800087F0100087F0100085B
:1000E0007F0100087F0100087F0100080000000078
:1000F0000000000000000000000000000000000000
:1001000000000000000000007F0100087F010008DF
:100110007F0100087F0100087F0100087F010008BF
:100120007F0100087F0100087F0100087F010008AF
:100130007F0100087F0100087F0100087F0100089F
:100140007F0100087F0100087F0100087F0100088F
:10015000DFF80CD000F04AF8004800478110000892
:10016000080C00200648804706480047FEE7FEE7E7
:10017000FEE7FEE7FEE7FEE7FEE7FEE7FEE7FEE757
:10018000B1070008510100082DE9F05F0546002085
:1001900092469B4688460646814640241BE02846F8
:1001A00041464746224600F042F853465A46C01A96
:1001B000914110D311461846224600F029F82D1A15
:1001C00067EB01084F4622460120002100F020F88D
:1001D00017EB00094E41201EA4F10104DFDC484664
:1001E00031462A464346BDE8F09F0000064C074DC5
:1001F00006E0E06840F0010394E8070098471034F7
:10020000AC42F6D3FFF7A8FFFC1000081C11000851
:10021000202A04DB203A00FA02F1002070479140C6
:10022000C2F1200320FA03F3194390407047202ABB
:1002300004DB203A21FA02F00021704721FA02F390
:10024000D040C2F12002914008431946704700BFD8
:10025000FEE710B54FF4407000F0DAF84FF4E130EB
:1002600000F01CFC10BD70472DE9F041024600254E
:100270000026002000230024002791F803C00CF082
:100280000F0591F803C01CF0100F03D091F802C0C5
:100290004CEA050591F800C0BCF1000F31D014689C
:1002A00000202BE04FF0010C0CFA00F3B1F800C075
:1002B0000CEA03069E4220D183004FF00F0C0CFA8B
:1002C00003F7BC4305FA03FC4CEA040491F803C0AD
:1002D000BCF1280F06D14FF0010C0CFA00FCC2F85B
:1002E00014C00AE091F803C0BCF1480F05D14FF0EB
:1002F000010C0CFA00FCC2F810C0401C0828D1D335
:100300001460B1F800C0BCF1FF0F34DD5468002068
:100310002EE000F1080C4FF0010808FA0CF3B1F8D8
:1003200000C00CEA03069E4221D183004FF00F0C5F
:100330000CFA03F7BC4305FA03FC4CEA040491F8F9
:1003400003C0BCF1280F05D100F1080C08FA0CF825
:10035000C2F8148091F803C0BCF1480F07D100F136
:10036000080C4FF0010808FA0CF8C2F81080401C85
:100370000828CED35460BDE8F08104E0012000F0ED
:1003800038FC00F04FF8F9E7012000F032FC00F0F3
:1003900049F8012000F02DFC00F044F870B5002170
:1003A00000230F22C4780CB3164C246804F4E064D4
:1003B000C4F5E064210AC1F10403CA40447804FA98
:1003C00003F184781440214309010F4C0678A155AC
:1003D000047804F01F050124AC4005786D114FF03E
:1003E000E02606EB8505C5F8004109E0047804F035
:1003F0001F050124AC40054D0678761145F82640CE
:1004000070BD00000CED00E000E400E080E100E0E1
:1004100002490143024A1160704700000000FA05DA
:100420000CED00E00648006800F4E0600549084370
:10043000001D03490860BFF3408F00BFFEE70000C6
:100440000CED00E00000FA057047000029B1064AF3
:1004500012690243044B1A6104E0034A12698243A1
:10046000014B1A61704700000010024029B1064A92
:1004700092690243044B9A6104E0034A9269824301
:10048000014B9A61704700000010024029B1064AF2
:10049000D2680243044BDA6004E0034AD268824324
:1004A000014BDA6070470000001002402DE9F04176
:1004B00000210022002500230026002400278C466E
:1004C000DFF86081D8F8048008F00C0121B104291C
:1004D00007D0082959D109E0DFF84C81C0F8008025
:1004E00058E0DFF84881C0F8008053E0DFF834813D
:1004F000D8F8048008F47012DFF82881D8F8048056
:1005000008F48035920C0D2A01D0921C00E00622DE
:1005100035B9DFF81C8102FB08F8C0F8008033E031
:10052000DFF80081D8F82C8008F48036DFF8F480FA
:10053000D8F82C8008F00F0808F1010446B9DFF85C
:10054000EC80B8FBF4F808FB02F8C0F800801BE070
:10055000DFF8D080D8F82C80C8F3031808F1010721
:10056000DFF8C080D8F82C80C8F3032808F1020C0B
:10057000DFF8B880B8FBF7F808FB0CF8B8FBF4F824
:1005800008FB02F8C0F8008004E0DFF89C80C0F8A7
:10059000008000BF00BFDFF88C80D8F8048008F02E
:1005A000F0010909DFF88C8018F80130D0F80080DC
:1005B00028FA03F8C0F80480DFF86880D8F80480CF
:1005C00008F4E061090ADFF86C8018F80130D0F80F
:1005D000048028FA03F8C0F80880DFF84880D8F8CB
:1005E000048008F46051C90ADFF8488018F8013027
:1005F000D0F8048028FA03F8C0F80C80DFF82480D3
:10060000D8F8048008F44041890BDFF82C8018F8F2
:100610000130D0F80C80B8FBF3F8C0F81080BDE8CA
:10062000F08100000010024000127A000024F40063
:1006300000093D00E8100008F810000870471CB5DC
:100640000020009001900024FF208DF80000AA20D7
:100650008DF8010084208DF802009DF802004440CE
:1006600002208DF803009DF80300444058208DF8C7
:1006700004009DF80400444001208DF805009DF819
:10068000050044408DF806400721684600F078FADE
:100690001CBD10B500F002F810BD00000CB5002024
:1006A000019000903E48006840F480303C4908606A
:1006B00000BF3B48006800F4003000900198401CE7
:1006C0000190009818B90198B0F5A06FF1D13448A5
:1006D000006810F4003F02D00120009001E00020EB
:1006E0000090009801285AD12E48006840F0100070
:1006F0002C4908600846006820F00300086008469E
:10070000006840F0020008602548406824494860BD
:100710000846406848600846406840F48060486089
:100720000846C06A204908401D49C8620846C06A98
:100730001E4908431A49C8620846006840F08060B4
:10074000086000BF1648006810F0006FFAD0144827
:10075000406820F47C10124948600846406840F424
:10076000E81048600846006840F08070086000BFEC
:100770000B48006810F0007FFAD00948406820F06C
:100780000300074948600846406840F0020048609E
:1007900000BF0348406800F00C000828F9D10CBDE8
:1007A000001002400020024000F0FEFF340801006B
:1007B00010B51648006840F001001449086008466A
:1007C00040681349084011494860084600681149CB
:1007D00008400E4908600846006820F48020086040
:1007E0000846406820F4FE0048600846006820F093
:1007F000A05008604FF47F0088600020C862FFF7B7
:1008000048FF4FF000600449086010BD001002402E
:100810000000FFF0FFFFF6FE08ED00E010B5002439
:100820002021114800F090F8E8B140F225510E481F
:1008300000F020F80C4800F025F9C4B20B4800681D
:1008400020F000400A490C5408480068042805D1EB
:100850000648006840F0004004490860034800680A
:10086000401C0249086010BD003801400000002013
:100870000800002010B500220023A1F510646A3C96
:1008800000D100BF0A1201249440A3B2DC430480CB
:1008900010BD21B1828942F40052828104E0828934
:1008A0004DF6FF731A4082817047000010B5044670
:1008B0002048844209D101218803FFF7E7FD002188
:1008C0004FF48040FFF7E2FD32E01B48844209D13B
:1008D00001214804FFF7BAFD00214FF40030FFF773
:1008E000B5FD25E01548844209D101218804FFF7B0
:1008F000ADFD00214FF48020FFF7A8FD18E010485F
:10090000844209D10121C804FFF7A0FD00214FF462
:100910000020FFF79BFD0BE00A48844208D101212B
:100920000805FFF793FD00214FF48010FFF78EFDBF
:1009300010BD000000380140004400400048004065
:10094000004C00400050004002460020B1F5007FFE
:1009500000D100BF13880B4201D0012000E000202D
:100960007047F0B503460024002600250020A1F5BD
:1009700010676A3F00D100BF1846C1F3421401F06E
:100980001F06012707FA06F5012C01D10C3004E0FF
:10099000022C01D1103000E014301AB107682F4347
:1009A000076002E00768AF430760F0BD2DE9F0473C
:1009B00086B005460E460024A24600BFA146002789
:1009C000B08900B100BF2F462C8A4CF6FF7004405E
:1009D000F08804432C82AC894EF6F3100440B088B2
:1009E00031890843718908430443AC81AC8A4FF6CE
:1009F000FF400440B0890443AC8201A8FFF756FDD4
:100A00001F48874202D1DDF810A001E0DDF80CA0FC
:100A1000A88910F4004F08D00AEBCA0000EB0A10B6
:100A200031684900B0FBF1F807E00AEBCA0000EBBF
:100A30000A1031688900B0FBF1F86420B8FBF0F0CF
:100A400004012009642101FB1089A88910F4004FDA
:100A500008D0322000EBC900B0FBF1F000F0070035
:100A6000044308E0322000EB09106421B0FBF1F0F0
:100A700000F00F0004432C8106B0BDE8F0870000B1
:100A80000038014001468888C0F308007047C1F370
:100A900008028280704700BFFEE7000010B586B0F4
:100AA000044601210420FFF7E1FC01218803FFF740
:100AB000DDFC4FF40070ADF8140010208DF8170025
:100AC00003208DF8160005A91E48FFF7CDFB4FF453
:100AD0008060ADF8140004208DF8170005A91948AE
:100AE000FFF7C2FB1848FFF7E1FE00940020ADF8C5
:100AF0000400ADF80600ADF80800ADF80C000420C5
:100B0000ADF80A0069461048FFF750FF25208DF820
:100B1000100003208DF8110000208DF81200012034
:100B20008DF8130004A8FFF739FC012240F225518B
:100B30000548FFF716FF01210348FFF7AAFE06B09C
:100B400010BD0000000801400038014002460A487C
:100B5000006810F0004F0AD0084A0748006820F0EB
:100B6000004008600020044B1860012070470022FC
:100B70000020086000BFF9E7000000200800002006
:100B800070B504460D460BE021780948FFF77FFF5A
:100B90002800A5F1010501D0641C01E0002070BD12
:100BA00040210348FFF7D0FE0028EDD10120F6E7F1
:100BB000003801400FB4054B10B503A9044A029850
:100BC00000F01CF810BC5DF814FB00005D1000087C
:100BD0000400002002E008C8121F08C1002AFAD150
:100BE00070477047002001E001C1121F002AFBD1AD
:100BF000704700F0010181F3138870472DE9FF4F22
:100C00008DB00F4605460026DEE1252874D100246C
:100C10006D1CF149A246A14601222B78203B02FA25
:100C200003F0084202D004436D1CF6E728782A2816
:100C300010D06FF02F022878A0F13001092915D8C3
:100C40000AEB8A0102EB410144F0020400EB010AC5
:100C50006D1CF0E757F804ABBAF1000F03DA44F467
:100C60000054CAF1000A44F002046D1C28782E28B2
:100C700017D115F8010F44F004042A280ED06FF0A4
:100C80002F022878A0F1300109290AD809EB89013F
:100C900002EB410100EB01096D1CF2E757F8049BE0
:100CA0006D1C28786C280FD006DC4C2817D06828DB
:100CB0000DD06A2814D104E0742810D07A280FD1FE
:100CC0000DE044F400140AE044F4801401E044F41C
:100CD00040146978814202D16D1C04F580146D1CAA
:100CE0002A786E2A20D00DDC632A33D005DC002A56
:100CF0006FD0582A12D1A2E011E0642A6AD0692A82
:100D00000CD167E0732A2FD004DC6F2A6FD0702AD1
:100D100004D199E0752A6BD0782A6AD01046DDE9B3
:100D20000F129047761C4EE1C4F30250022806D001
:100D300003280AD0042801CF0AD0066043E101CF7E
:100D40004FEAE671C0E900613DE101CF06803AE17A
:100D5000067038E117F8040B8DF8000000208DF8BC
:100D60000100EB46012003E057F804BB4FF0FF30D1
:100D700061074FF0000102D40DE008F1010188463F
:100D800049450FDA8045F8DB1BF808100029F4D13B
:100D900008E008F1010188468142FADB1BF80810DF
:100DA0000029F6D1DDE90F23AAEB08008146214690
:100DB00000F03BF9304400EB080604E0DDE90F12D7
:100DC0001BF8010B9047B8F10108F7D221464846BD
:100DD000F4E0FDE00A21C4F302534FF0000B089148
:100DE000022B07D001CFC117032B09D00AE034E052
:100DF00023E024E0FF1D27F00707F7E8020105E0E4
:100E000000B2C117042B01D140B2C117002907DA83
:100E10004FF0000CD0EB0C006CEB01012D2302E035
:100E2000230504D52B238DF82430012303E0E307A9
:100E300001D02023F7E7984650E00A210EE0102069
:100E40004FF0000B08900CE010214FF0000B44F025
:100E500004044FF00809089103E008214FF0000B4B
:100E60000891C4F30253022B04D001CF0021032BBD
:100E700006D006E0FF1D27F00707F7E8020103E0B0
:100E800080B2042B00D1C0B24FF00008230725D553
:100E9000702A2AD0DDF820C08CF0100C5CEA0B0C14
:100EA00009D150EA010306D030238DF824308DF8A3
:100EB000252002239846DDF820C08CF0080C5CEA5F
:100EC0000B0C0BD150EA010301D1630706D5302387
:100ED0008DF824304FF00108A9F10109582A09D0F2
:100EE0003EA20B9208AA0A9211E040238DF824300A
:100EF0000123DFE73EA2F4E75B46089AFFF744F9D7
:100F00000B9B9B5C0A9AA2F101020A92137050EAB1
:100F10000102F1D10A98ADEB000000F1200B60074F
:100F200002D524F4803401E04FF00109D94502DDF7
:100F3000A9EB0B0000E0002000EB0B0141440890FE
:100F4000AAEB010AE00306D4DDE90F23214650464F
:100F500000F06BF80644002008E009A911F8090028
:100F6000DDE90F129047761C09F1010081464045EA
:100F7000F3DBE0030CD5DDE90F232146504600F0FA
:100F800054F8064404E0DDE90F1230209047761C47
:100F90000899481E08900029F5DC08E00A980A998B
:100FA0000078491C0A91DDE90F129047761CBBF1CD
:100FB0000001ABF1010BF1DC21465046DDE90F23C6
:100FC00000F020F806446D1C287800287FF41DAE40
:100FD00011B03046BDE8F08F0928010030313233BE
:100FE0003435363738396162636465660000000065
:100FF000303132333435363738394142434445464F
:10100000000000002DE9F041044600251E46174669
:10101000880405D406E039462020B04705F10105D3
:10102000641EF8D52846BDE8F0812DE9F04104465C
:1010300000251E469046C80301D5302700E0202732
:10104000880405D506E041463846B04705F101055C
:10105000641EF8D52846BDE8F081000070B504464E
:101060000D46E1B20548FFF712FD00BF40210348DD
:10107000FFF76AFC0028F9D0204670BD0038014017
:1010800008B5FFF7E6F8FFF7DAFA11E00020009064
:1010900069462046FFF75AFD012805D1E278A1787C
:1010A00004A0FFF787FD02E009A0FFF783FD00BF62
:1010B000ECE7000049742773206F6B2E20434D44EA
:1010C0003A2532582C7374617475733A253258007E
:1010D000536F6D65206572726F7220697320657839
:1010E000697374656E63650000000000010203040B
:1010F0000102030406070809020406081C1100087F
:101100000000002008000000D40B00082411000893
:1011100008000020000C0000E40B000800000000A4
:0411200000000000CB
:04000005080001519D
:00000001FF
