:020000040800F2
:1000000000FE0020AD0300087D0100088301000808
:10001000890100088F010008950100089B01000874
:10002000A1010008A7010008AD010008B301000804
:10003000B9010008BF010008C5010008CB01000894
:10004000D1010008D7010008DD010008E301000824
:10005000E9010008EF010008F5010008FB010008B4
:1000600001020008070200080D0200081302000840
:10007000190200081F020008250200082B020008D0
:1000800031020008370200083D0200084302000860
:10009000490200084F020008550200085B020008F0
:1000A00061020008670200086D0200087302000880
:1000B000790200087F020008850200088B02000810
:1000C00091020008970200089D020008A3020008A0
:1000D000A9020008AF020008B5020008BB02000830
:1000E000C1020008C7020008CD020008D3020008C0
:1000F000D9020008DF020008E5020008EB02000850
:10010000F1020008F7020008FD02000803030008DE
:10011000090300080F030008150300081B0300086B
:1001200021030008270300082D03000833030008FB
:10013000390300083F030008450300084B0300088B
:1001400051030008570300085D030008630300081B
:10015000690300086F030008750300087B030008AB
:1001600081030008870300088D030008930300083B
:10017000990300089F030008A50300088D48006844
:1001800000478D48006800478C48006800478C484D
:10019000006800478B48006800478B4800680047AC
:1001A0008A48006800478A48006800478948006814
:1001B0000047894800680047884800680047884829
:1001C0000068004787480068004787480068004784
:1001D00086480068004786480068004785480068F0
:1001E0000047854800680047844800680047844805
:1001F000006800478348006800478348006800475C
:1002000082480068004782480068004781480068CB
:1002100000478148006800478048006800478048E0
:10022000006800477F48006800477F480068004733
:100230007E48006800477E48006800477D480068A7
:1002400000477D48006800477C48006800477C48BC
:10025000006800477B48006800477B48006800470B
:100260007A48006800477A48006800477948006883
:100270000047794800680047784800680047784898
:1002800000680047774800680047774800680047E3
:10029000764800680047764800680047754800685F
:1002A0000047754800680047744800680047744874
:1002B00000680047734800680047734800680047BB
:1002C000724800680047724800680047714800683B
:1002D0000047714800680047704800680047704850
:1002E000006800476F48006800476F480068004793
:1002F0006E48006800476E48006800476D48006817
:1003000000476D48006800476C48006800476C482B
:10031000006800476B48006800476B48006800476A
:100320006A48006800476A480068004769480068F2
:100330000047694800680047684800680047684807
:100340000068004767480068004767480068004742
:1003500066480068004766480068004765480068CE
:1003600000476548006800476448006800476448E3
:10037000006800476348006800476348006800471A
:1003800062480068004762480068004761480068AA
:1003900000476148006800476048006800476048BF
:1003A000006800475F480068004700005E488047DB
:1003B0005E480047083000080C3000081030000884
:1003C00014300008183000081C30000820300008E5
:1003D00024300008283000082C3000083030000895
:1003E00034300008383000083C3000084030000845
:1003F00044300008483000084C30000850300008F5
:1004000054300008583000085C30000860300008A4
:1004100064300008683000086C3000087030000854
:1004200074300008783000087C3000088030000804
:1004300084300008883000088C30000890300008B4
:1004400094300008983000089C300008A030000864
:10045000A4300008A8300008AC300008B030000814
:10046000B4300008B8300008BC300008C0300008C4
:10047000C4300008C8300008CC300008D030000874
:10048000D4300008D8300008DC300008E030000824
:10049000E4300008E8300008EC300008F0300008D4
:1004A000F4300008F8300008FC3000080031000883
:1004B00004310008083100080C3100081031000830
:1004C00014310008183100081C31000820310008E0
:1004D00024310008283100082C3100083031000890
:1004E00034310008383100083C3100084031000840
:1004F00044310008483100084C31000850310008F0
:1005000054310008583100085C310008603100089F
:1005100064310008683100086C310008703100084F
:1005200074310008783100086D2500080133000897
:1005300040EA01039B0703D009E008C9121F08C065
:10054000042AFAD203E011F8013B00F8013B521EE5
:04055000F9D2704725
:020000040800F2
:10060000EFF30980704780F309887047EFF30880A3
:10061000704780F30888704740BA7047C0BA704787
:100620000CB50020019000909148006840F48030A3
:100630008F49086000BF8E48006800F400300090C9
:100640000198401C0190009818B90198B0F5A06F6E
:10065000F1D18748006810F4003F02D001200090DB
:1006600001E000200090009801285AD181480068DC
:1006700040F010007F4908600846006820F0030041
:1006800008600846006840F002000860784840684A
:10069000774948600846406848600846406840F42A
:1006A000806048600846C06A734908407049C86263
:1006B0000846C06A714908436D49C8620846006827
:1006C00040F08060086000BF6948006810F0006F6B
:1006D000FAD06748406820F47C10654948600846B5
:1006E000406840F4E81048600846006840F08070B8
:1006F000086000BF5E48006810F0007FFAD05C48D8
:10070000406820F003005A4948600846406840F0BD
:100710000200486000BF5648406800F00C000828FE
:10072000F9D10CBD10B5FFF77BFF10BD10B55048D7
:10073000006840F001004E49086008464068504992
:1007400008404B494860084600684E4908404849FF
:1007500008600846006820F4802008600846406869
:1007600020F4FE0048600846006820F0A0500860B1
:100770004FF47F0088600020C862FFF7D3FF4FF07E
:1007800000604149086010BDF0B500210020002341
:100790000024002200250026354F7F6807F00C0159
:1007A00021B1042908D008294BD10BE0374FDFF8DD
:1007B000E0C0CCF800704AE0364FDFF8D4C0CCF887
:1007C000007044E02A4F7F6807F47010284F7F685C
:1007D00007F48033800C0D2801D0801C00E0062037
:1007E00033B92D4F4743DFF8A8C0CCF8007027E09D
:1007F0001F4FFF6A07F480341D4FFF6A07F00F0791
:100800007A1C44B9234FB7FBF2F74743DFF880C0A7
:10081000CCF8007014E0164FFF6AC7F303177D1C75
:10082000134FFF6AC7F30327BE1C1A4FB7FBF5F738
:100830007743B7FBF2F74743DFF854C0CCF80070BA
:1008400005E0124FDFF848C0CCF8007000BF00BFD1
:10085000074F7F68C7F30317DFF840C01CF8071085
:100860000B4F3F68CF40DFF828C0CCF80070F0BDD8
:10087000001002400020024000F0FEFF340801009A
:100880000000FFF0FFFFF6FE08ED00E000127A0026
:10089000000000200024F40000093D00062A0008A2
:1008A00001460020FE4A106800F03800084310603E
:1008B0007047FB49096821F00801F94A11601146A7
:1008C0000968014311607047F549096821F010017A
:1008D000F34A116011460968014311607047F148FD
:1008E000EF494860F04848607047EE48EC4948607E
:1008F000ED4848607047EA48006940F08000E849E8
:1009000008617047E648006940F08000E4490861EA
:1009100070470420E249C96811F0010F01D001209D
:100920000EE0DF49C96811F0040F01D0022007E092
:10093000DB49C96811F0100F01D0032000E004204A
:10094000704700B502460423FFF7E3FF034603E0C8
:10095000FFF7DFFF0346521E012B01D1002AF7D11A
:1009600002B90523184600BD30B5044604254FF4EE
:100970003020FFF7E6FF0546042D17D1C84800696F
:1009800040F00200C649086108464461006940F031
:10099000400008614FF43020FFF7D3FF0546C04800
:1009A000006941F6FD710840BD490861284630BD27
:1009B00010B504244FF43020FFF7C3FF0446042C85
:1009C00016D1B748006940F00400B54908610846EF
:1009D000006940F0400008614FF43020FFF7B1FF9C
:1009E0000446AF48006941F6FB710840AC49086114
:1009F000204610BD00B502460423FFF78AFF0346D8
:100A000003E0FFF786FF0346521E012B01D1002AA7
:100A1000F7D102B90523184600BD10B504244FF4E0
:100A20003020FFF7E7FF0446042C16D19C480069EC
:100A300040F004009A4908610846006940F040000F
:100A400008614FF43020FFF7D5FF04469448006951
:100A500041F6FB71084092490861204610BD002014
:100A60008F49C96911F0020F01D0012000E0002078
:100A7000704730B5A5250424FFF7F1FF00B100252C
:100A80004FF43020FFF75DFF0446042C3AD185482F
:100A900083498860844888600846006940F02000E7
:100AA00008610846006940F0400008614FF43020BA
:100AB000FFF747FF0446042C1BD17948006941F633
:100AC000DF710840764908610846006940F010006F
:100AD000086176480580E002FFF733FF0446052CE5
:100AE00010D06F48006941F6EF7108406C49086109
:100AF00008E0052C06D06A48006941F6EF7108400D
:100B000067490861204630BD78B506460C46042585
:100B100000200090E802FFF714FF0546042D24D1C1
:100B20005F48006940F001005D4908613480E802D7
:100B3000FFF707FF0546042D10D1B01C0090200CD4
:100B400000990880E802FFF7FCFE0546544800695A
:100B500041F6FE7108405249086106E050480069BC
:100B600041F6FE7108404E490861284678BD70B5CF
:100B700004460D460426F002FFF7E3FE0646042E67
:100B800011D14748006940F00100454908612580BE
:100B9000F002FFF7D6FE06464148006941F6FE71B5
:100BA00008403F490861304670BD70B505460E46A5
:100BB0000424E002FFF7C5FE0446042C17D139488F
:100BC00037498860384888600846006940F010005E
:100BD00008612E80E002FFF7B4FE0446052C06D023
:100BE0002F48006941F6EF7108402D490861204601
:100BF00070BD2DE9F04304464FF6FF763746B04608
:100C0000B1460425E443E6B2C4F30727C4F307481A
:100C10004FEA1469E802FFF794FE0546042D49D116
:100C200020481F498860204888600846006940F0D5
:100C300010000861FF2E06D01C4808300680E8022C
:100C4000FFF77FFE0546042D08D1FF2F06D0174879
:100C50000A300780E802FFF774FE0546042D0AD12A
:100C6000B8F1FF0F07D011480C30A0F80080E8025F
:100C7000FFF767FE0546042D0AD1B9F1FF0F07D033
:100C80000A480E30A0F80090E802FFF75AFE054629
:100C9000052D0FD00248006941F6EF71084007E0CA
:100CA0000020024023016745AB89EFCD00F8FF1F0C
:100CB000664908612846BDE8F08330B5054604243E
:100CC0004FF43020FFF73DFE0446042C41D160482C
:100CD0005E4988605F4888600846006940F02000EF
:100CE00008610846006940F0400008614FF4302078
:100CF000FFF727FE0446042C22D15448006941F630
:100D0000DF710840514908610846006940F0100051
:100D100008611DB100205049088002E0A5204E491D
:100D200008804FF43020FFF70CFE0446052C10D04D
:100D30004648006941F6EF7108404449086108E0FF
:100D4000052C06D04148006941F6DF7108403F4953
:100D50000861204630BDF0B505460E46174604240E
:100D60003B483A4988603B488860E002FFF7E9FD6C
:100D70000446042C19D13548006940F0100033496D
:100D8000086147F0F800304328433349891C088044
:100D9000E002FFF7D6FD0446052C06D02B4800697B
:100DA00041F6EF710840294908612046F0BD274807
:100DB000C069800870472548006A704700202349B1
:100DC000096811F0200F01D0012000E000207047D9
:100DD00029B11E4A126902431C4B1A6104E01B4AE6
:100DE00012698243194B1A6170470146002001299C
:100DF00008D1164AD26912F0010F01D0012008E093
:100E0000002006E0114AD2680A4201D0012000E029
:100E1000002070470D49C860704704200B49C9681D
:100E200011F0010F01D001200EE00849C96811F04E
:100E3000040F01D0022007E00449C96811F0100F27
:100E400001D0032000E00420704700000020024091
:100E500023016745AB89EFCD00F8FF1F10B50446AD
:100E6000CA48844208D10121042000F0E7FB002198
:100E7000042000F0E3FB46E0C548844208D101218C
:100E8000082000F0DBFB0021082000F0D7FB3AE04F
:100E9000C048844208D10121102000F0CFFB00217E
:100EA000102000F0CBFB2EE0BB48844208D101218A
:100EB000202000F0C3FB0021202000F0BFFB22E037
:100EC000B648844208D10121402000F0B7FB002140
:100ED000402000F0B3FB16E0B148844208D1012164
:100EE000802000F0ABFB0021802000F0A7FB0AE08F
:100EF000AC48844207D10121801500F09FFB0021FE
:100F0000A01500F09BFB10BD10B50121084600F0B4
:100F100095FB0021012000F091FB10BD2DE9F0416F
:100F2000024600250026002000230024002791F817
:100F300003C00CF00F0591F803C01CF0100F03D094
:100F400091F802C04CEA050591F800C0BCF1000F11
:100F500031D0146800202BE04FF0010C0CFA00F3A4
:100F6000B1F800C00CEA03069E4220D183004FF086
:100F70000F0C0CFA03F7BC4305FA03FC4CEA04041B
:100F800091F803C0BCF1280F06D14FF0010C0CFA08
:100F900000FCC2F814C00AE091F803C0BCF1480F8D
:100FA00005D14FF0010C0CFA00FCC2F810C0401C37
:100FB0000828D1D31460B1F800C0BCF1FF0F34DDB4
:100FC000546800202EE000F1080C4FF0010808FAE8
:100FD0000CF3B1F800C00CEA03069E4221D1830055
:100FE0004FF00F0C0CFA03F7BC4305FA03FC4CEA74
:100FF000040491F803C0BCF1280F05D100F1080CDE
:1010000008FA0CF8C2F8148091F803C0BCF1480F3C
:1010100007D100F1080C4FF0010808FA0CF8C2F8EB
:101020001080401C0828CED35460BDE8F0814FF6F4
:10103000FF710180022181700421C1707047024656
:10104000002093680B4201D0012000E0002070478F
:101050000146886880B2704702460020D3680B4280
:1010600001D0012000E0002070470146C86880B22E
:10107000704701617047416170470AB1016100E04A
:1010800041617047C16070474FF480320A4382610A
:101090008161826182698269704702460020424B09
:1010A00018684FF68073184040EA021008433E4B20
:1010B000186070473D49C8617047F0B50A46002383
:1010C00000240021002500F00046B6F1004F02D1B7
:1010D000354EF16901E0344E7168C0F3034583B2C7
:1010E00000F44016B6F5401F08D121F070612E4E75
:1010F000766826F070662C4F7E6012E000F4801651
:10110000B6F5801F06D1032606FA05F4A14341F087
:10111000706106E0460D360103FA06F6B14341F070
:10112000706122B1460D360103FA06F6314300F034
:101130000046B6F1004F02D11B4EF16101E01A4E9C
:101140007160F0BD30B500228B071C0F0F2303FA2E
:1011500004F2154B08338C1053F824309343124C8F
:1011600008348D1044F8253023468C1053F8243071
:101170008C07240F00FA04F423430B4C08348D1021
:1011800044F8253030BD0A49086070470008014026
:10119000000C014000100140001401400018014003
:1011A000001C0140002001400000014000002042DE
:1011B000DC002042F948006840F00100F74908606F
:1011C00008464068F6490840F44948600846006807
:1011D000F4490840F14908600846006820F480207E
:1011E00008600846406820F4FE0048600846006831
:1011F00020F0A05008604FF47F0088600020C86293
:101200007047E649096821F48031E44A11601146CB
:10121000096821F480211160B0F5803F03D0B0F55A
:10122000802F0ED106E0DD49096841F48031DB4AA8
:10123000116007E0D949096841F4A021D74A11603B
:1012400000E000BF00BF704710B501460022002338
:1012500000204A11012A02D1D04C236806E0022A5C
:1012600002D1CE4C236A01E0CC4C636A01F01F022C
:10127000012494401C4201D0012000E0002010BD58
:1012800038B5002000900024002500BF3120FFF772
:10129000DBFF05460098401C00900098B0F5A06F59
:1012A00001D0002DF2D03120FFF7CEFF08B101248C
:1012B00000E00024204638BD01460020B74A1068EF
:1012C00020F0F80040EAC10010607047B64908609D
:1012D000704702460020B14B586820F4741042EA6F
:1012E00001031843AD4B58607047AF49086670471B
:1012F00002460020A94BD86AAC4B184042EA0103D1
:101300001843A64BD862704701460020A34AD06A12
:1013100020F0F0000843D0627047014600209F4A49
:10132000D06A20F470600843D06270479E49886696
:10133000704701460020994AD06A20F47040084363
:10134000D062704798490867704701460020934A69
:10135000506820F003000843506070478F48406891
:1013600000F00C007047014600208C4A506820F0C5
:10137000F00008435060704701460020874A5068DB
:1013800020F4E06008435060704701460020834A23
:10139000506820F4605040EAC1005060704729B1A5
:1013A0007E4A527A02437D4B5A7204E07B4A527A5B
:1013B00082437A4B5A7270477D49086070470146F4
:1013C0000020764A506820F440400843506070473F
:1013D0007849086070477749091D08607047002107
:1013E000754A11706D4A82F82010012802D0042835
:1013F00008D103E00121704A117004E005216E4A12
:10140000117000E000BF00BF70476C490860704772
:101410006249096A0143614A116270476749443968
:10142000086070472DE9F0410021002200250023CB
:101430000026002400278C46DFF86081D8F804805D
:1014400008F00C0121B1042907D0082959D109E07D
:10145000DFF86C81C0F8008058E0DFF86881C0F8E0
:10146000008053E0DFF83481D8F8048008F470126B
:10147000DFF82881D8F8048008F48035920C0D2A12
:1014800001D0921C00E0062235B9DFF83C8102FB56
:1014900008F8C0F8008033E0DFF80081D8F82C802D
:1014A00008F48036DFF8F480D8F82C8008F00F08B4
:1014B00008F1010446B9DFF80C81B8FBF4F808FB29
:1014C00002F8C0F800801BE0DFF8D080D8F82C804C
:1014D000C8F3031808F10107DFF8C080D8F82C80A2
:1014E000C8F3032808F1020CDFF8D880B8FBF7F83E
:1014F00008FB0CF8B8FBF4F808FB02F8C0F8008011
:1015000004E0DFF8BC80C0F8008000BF00BFDFF857
:101510008C80D8F8048008F0F0010909DFF8AC806D
:1015200018F80130D0F8008028FA03F8C0F80480D9
:10153000DFF86880D8F8048008F4E061090ADFF871
:101540008C8018F80130D0F8048028FA03F8C0F82D
:101550000880DFF84880D8F8048008F46051C90A90
:10156000DFF8688018F80130D0F8048028FA03F812
:10157000C0F80C80DFF82480D8F8048008F44041DB
:10158000890BDFF84C8018F80130D0F80C80B8FBDC
:10159000F3F8C0F81080BDE8F081000000100240B0
:1015A0000000FFF0FFFFF6FE00004242F0FFFEFFEA
:1015B000D8004242C4054242201002408004424208
:1015C00000127A000024F40000093D00162A0008E9
:1015D000262A000829B1354A52690243334B5A6121
:1015E00004E0324A52698243304B5A61704729B154
:1015F0002E4A926902432D4B9A6104E02B4A92696C
:1016000082432A4B9A61704729B1284AD269024322
:10161000264BDA6104E0254AD2698243234BDA6122
:10162000704729B1214A926A0243204B9A6204E032
:101630001E4A926A82431D4B9A62704729B11B4A27
:10164000D2680243194BDA6004E0184AD268824338
:10165000164BDA60704729B1144A12690243134BE2
:101660001A6104E0114A12698243104B1A617047F3
:101670000F49086070470F49C86470470B49C8712B
:1016800070470A48406A40F08070084948627047D5
:1016900001460020054A92680A4201D0012000E07C
:1016A0000020704701498872704700000010024016
:1016B000400442420000424210B50446FB488442C6
:1016C00009D101218803FFF7B9FF00214FF48040C1
:1016D000FFF7B4FF32E0F648844209D10121480403
:1016E000FFF7B9FF00214FF40030FFF7B4FF25E00A
:1016F000F048844209D101218804FFF7ACFF0021A2
:101700004FF48020FFF7A7FF18E0EB48844209D18F
:101710000121C804FFF79FFF00214FF40020FFF7CD
:101720009AFF0BE0E548844208D101210805FFF744
:1017300092FF00214FF48010FFF78DFF10BD2DE9BF
:10174000F04786B005460E460024A24600BFA146DB
:101750000027B08900B100BF2F462C8A4CF6FF70DD
:101760000440F08804432C82AC894EF6F310044008
:10177000B08831890843718908430443AC81AC8A3D
:101780004FF6FF400440B0890443AC8201A8FFF744
:1017900049FEC648874202D1DDF810A001E0DDF81D
:1017A0000CA0A88910F4004F08D00AEBCA0000EB87
:1017B0000A1031684900B0FBF1F807E00AEBCA00F3
:1017C00000EB0A1031688900B0FBF1F86420B8FB27
:1017D000F0F004012009642101FB1089A88910F4AC
:1017E000004F08D0322000EBC900B0FBF1F000F050
:1017F0000700044308E0322000EB09106421B0FB2D
:10180000F1F000F00F0004432C8106B0BDE8F08732
:101810004FF41651016000218180C18001810C21AB
:10182000418100218181704710B502460020108A55
:101830004FF2FF0318400B884C8823438C882343C6
:10184000CC8823431843108210BD002101804180C1
:101850008180C180704721B1828942F40052828127
:1018600004E082894DF6FF731A4082817047F0B51B
:1018700003460024002600250020A1F510676A3FDA
:1018800000D100BF1846C1F3421401F01F06012722
:1018900007FA06F5012C01D10C3004E0022C01D12D
:1018A000103000E014301AB107682F43076002E0DF
:1018B0000768AF430760F0BD1AB1838A0B43838288
:1018C00002E0838A8B4383827047028A4FF6F0736B
:1018D0001A400282028A0A430282704782894FF2CA
:1018E000FF731A40828182890A438281704721B145
:1018F000828942F00202828104E082894FF6FD7300
:101900001A4082817047028A4FF6DF731A400282C2
:10191000028A0A430282704721B1028A42F480425D
:10192000028204E0028A4BF6FF731A40028270477B
:10193000C1F308028280704701468888C0F308001E
:101940007047818941F0010181817047028BD2B2D9
:101950000283028B42EA012202837047028B02F467
:101960007F420283028B0A430283704721B1828A3D
:1019700042F02002828204E0828A4FF6DF731A402E
:101980008282704721B1828A42F01002828204E092
:10199000828A4FF6EF731A408282704721B1828AA1
:1019A00042F00802828204E0828A4FF6F7731A40FE
:1019B0008282704721B1828942F40042828103E031
:1019C0008289C2F30E028281704721B1828A42F479
:1019D0000062828204E0828A4FF2FF731A408282A0
:1019E0007047828A4FF6FB731A408282828A0A43CA
:1019F0008282704721B1828A42F00202828204E030
:101A0000828A4FF6FD731A40828270470246002098
:101A1000B1F5007F00D100BF13880B4201D0012037
:101A200000E00020704701F40072B2F5007F00D1A1
:101A300000BFCA430280704770B5024600240023ED
:101A400000250020A1F510666A3E00D100BFC1F359
:101A5000421501F01F03012606FA03F3012D02D1FE
:101A60009689334006E0022D02D1168A334001E008
:101A7000968A33400C12012606FA04F41688344084
:101A800013B10CB1012000E0002070BD10B50022A0
:101A90000023A1F510646A3C00D100BF0A120124A2
:101AA0009440A3B2DC43048010BD00000038014024
:101AB0000044004000480040004C004000500040FE
:101AC00042F2FB7106E000BF0A00A1F10101FBD167
:101AD00042F2FB710200A0F1010398B2F3D170470A
:101AE0000146FE48405C704710B5002400BFFC482A
:101AF000008810F0200FFAD0F948FFF71DFFC4B29C
:101B0000204610BD70B504460D462E460DE000BFC0
:101B10004021F348FFF77AFF0028F9D0F048008809
:101B200014F8011BEE48FFF703FF3000A6F1010691
:101B3000EDD170BD10B5044600BF4021E848FFF765
:101B400065FF0028F9D0E64800882146E448FFF701
:101B5000EFFE10BD70B5B2B006460D46002400BFC2
:101B600004E000200DF80400601CC4B2C82CF8DBAF
:101B7000FF208DF80000BB208DF80100C1208DF8FA
:101B80000200E8B28DF80300012D17D145208DF831
:101B9000040000208DF80500022408E09DF80500EF
:101BA0001DF8041048408DF80500601CC4B2052CD7
:101BB000F4DB06216846FFF7A5FF22E0842D1ED145
:101BC000002405E0315D201D0DF80010601CC4B23A
:101BD000842CF7DB00208DF88800022408E09DF8B3
:101BE00088001DF8041048408DF88800601CC4B2BD
:101BF000882CF4DB89216846FFF784FF01E032B0CE
:101C000070BD00BFFBE730B585B00546002400BFBE
:101C100004E000200DF80400601CC4B2142CF8DBB2
:101C2000FF208DF80000BB208DF8010096208DF874
:101C3000020004208DF80300002405E0295D201D2A
:101C40000DF80010601CC4B2042CF7DB00208DF8E6
:101C50000800022408E09DF808001DF80410484020
:101C60008DF80800601CC4B2082CF4DB092168461A
:101C7000FFF748FF05B030BD30B589B005460024F8
:101C800000BF04E0002001A90855601CC4B21E2C4E
:101C9000F8DBFF208DF80400BB208DF805009620AE
:101CA0008DF8060004208DF80700E8B200168DF8C4
:101CB0000800E8B200148DF80900E8B200128DF8AF
:101CC0000A00E8B28DF80B0000208DF80C00022409
:101CD00008E09DF80C0001A9095D48408DF80C0052
:101CE000601CC4B2082CF4DB092101A8FFF70AFF2D
:101CF00009B030BD10B588B0002400BF04E000205A
:101D00000DF80400601CC4B21E2CF8DBFF208DF817
:101D10000000BB208DF80100A8208DF802000E20E5
:101D20008DF8030049208DF8040042208DF805004D
:101D30004F208DF806008DF8070054208DF808001C
:101D400058208DF8090067490968080FFFF7C8FE99
:101D50008DF80A0063480068C0F30360FFF7C0FE17
:101D60008DF80B005F490968090CC1F30310FFF7F8
:101D7000B7FE8DF80C005B480068C0F30340FFF726
:101D8000AFFE8DF80D0057490988090AC1F3031009
:101D9000FFF7A6FE8DF80E0052480088C0F303201E
:101DA000FFF79EFE8DF80F004E480078C0F3031039
:101DB000FFF796FE8DF810004A49097801F00F00F0
:101DC000FFF78EFE8DF8110000208DF8120002241E
:101DD00008E09DF812001DF8041048408DF812002C
:101DE000601CC4B2122CF4DB13216846FFF78AFE94
:101DF00008B010BD30B585B00546002404E00020D1
:101E00000DF80400601CC4B2142CF8DBFF208DF820
:101E10000000BB208DF80100C2208DF802000120D7
:101E20008DF803008DF8045000208DF80500022481
:101E300008E09DF805001DF8041048408DF80500E5
:101E4000601CC4B2052CF4DB06216846FFF75AFE7D
:101E500005B030BD70B586B005460E46002400BF03
:101E600004E0002001A90855601CC4B2142CF8DB62
:101E7000FF208DF8040055208DF805008DF80650E0
:101E80008DF80760042101A8FFF73CFE06B070BD85
:101E900000B585B001218803FFF7A9FB1048FFF7C3
:101EA0000BFC01210420FFF7A2FB4FF40070ADF8FA
:101EB000000018208DF8030003208DF80200694609
:101EC0000948FFF72BF84FF48060ADF800000420BC
:101ED0008DF803006946044808E000004C2A000819
:101EE000003801401800002000080140FFF716F8F4
:101EF0004FF4E13001900020ADF80800ADF80A0081
:101F0000ADF80C00ADF810000C20ADF80E0001A9E2
:101F1000F848FFF714FC0121F648FFF79CFC05B0D8
:101F200000BD08B501211020FFF761FB0820ADF8C6
:101F3000000003208DF8020010208DF80300694690
:101F4000ED48FEF7EBFF0821EB48FFF794F808BDDA
:101F5000012080F3138800BF00BFE848006800F448
:101F6000E060E7490843001DE4490860BFF3408F83
:101F700000BF00BFFEE701460020E24A12780C2AAB
:101F800075D2DFE802F0060C2934475F747474746C
:101F9000666CFF2902D10122DA4B1A706BE0DA4A33
:101FA0005170AA2901D0BB2906D10222D54B1A7043
:101FB0000022D64B1A700EE0552903D10A22D14BCC
:101FC0001A7008E0FF2903D10122CE4B1A7002E0FB
:101FD0000022CC4B1A704EE0CB4A1170CB4A1278DB
:101FE0004A40CA4B1A700322C64B1A7043E0C64AD5
:101FF000D170C64A12784A40C44B1A700022C44BB2
:102000001A7019B90522BF4B1A7002E00422BD4BA9
:102010001A7030E0BC4A121DBD4B1B78D154BB4A2C
:1020200012784A40B94B1A70B94A1278521CB84B10
:102030001A70B54AD2781B789A4202DC0522B14B5D
:102040001A7018E0B04A91700022AE4B1A7001204D
:1020500011E0AD4A11700B22AA4B1A700BE0AA4A8C
:1020600011710022A74B1A70012004E0FFE7002243
:10207000A44B1A7000BF00BF704710B5FF20FFF7D8
:1020800059FDA1494878FFF755FD9F490878FFF7AA
:1020900051FD9D49C878FFF74DFD9B48C178001D53
:1020A000FFF730FD98498878FFF744FD10BD002008
:1020B000984902E00A781044491C974A9142F9D3A2
:1020C000704730B5B3B00025002404E0002001A91A
:1020D0000855601CC4B2C82CF8DB8B480078C028B7
:1020E00042D006DC502809D0792812D07A287DD138
:1020F00026E0C1287BD0C228F9D15DE18248C078B2
:10210000012805D1804800795C2801D1FFF7F2FD54
:1021100097E17D48C078042811D17B4800791928BF
:102120000DD179484079822809D1774880790628ED
:1021300005D17548C079122801D1FFF709FF80E168
:102140007148C07803280ED16F480079AA280AD1B7
:102150006D484079C02806D16B488079022802D1A9
:1021600001206E4908706CE16C480078012850D15C
:102170006548C07801284CD163480079452804D0CF
:10218000522812D057283FD137E0452064490870C3
:102190006048083800F057FA18B90120FFF72AFE06
:1021A00002E00020FFF726FE32E052205C49087072
:1021B0004FF000605B490860084600788DF8040025
:1021C00008460088000A8DF8050008460068000CE3
:1021D0008DF8060008460068000E8DF8070002AA78
:1021E00080215048006800F04FFA01E028E111E03A
:1021F000842101A8FFF7AEFC0AE057204849087087
:102200000020FFF7F7FD03E000204549087000BFFC
:1022100000BF16E141480078012869D140480078A4
:102220005728FAD13848C07801284AD1FFF73FFF34
:102230003D490860084600788DF80400084600888B
:10224000000A8DF8050008460068000C8DF80600AD
:1022500008460068000E8DF80700344800788DF8B5
:10226000080032480088000A8DF809002F480068ED
:10227000000C8DF80A002D480068000E8DF80B0048
:1022800001AA08212348083800F008FA0446012C66
:1022900003D10020FFF7AEFD02E00220FFF7AAFD08
:1022A00001A8FFF7B0FC4FF4FA60FFF709FC082122
:1022B0001148FEF7DEFE41F65830FFF701FCFFF74C
:1022C00047FE1148C078842875D10F4805794079B8
:1022D00045EA00250C48807945EA00450A48C0795E
:1022E00045EA00650B480838854221D233B030BD3D
:1022F00061E0000000380140001001400CED00E0FA
:102300000000FA05040000201C0000200500002049
:102310000600002008300008000002080D00002020
:102320000C000020080000201400002010000020F5
:10233000002406E0201DAD49085C01A90855601C79
:10234000C4B2802CF6DBAA48854225D1A748001FDD
:10235000007BA8490860A548001F407B096841EA46
:102360000020A4490860A148001F807B096841EA59
:102370000040A04908609D48001FC07B096841EAF1
:1023800000609C490860002404E0FF2001A9085572
:10239000601CC4B2082CF8DB01AA8021284600F09A
:1023A0007DF90446012C03D10020FFF723FD02E054
:1023B0000220FFF71FFD44E08F48007801283ED13E
:1023C0008E48007852283AD18848001FC0780128EA
:1023D00035D18648001F007988BB89480068803065
:1023E0008749086008460068864988420AD1452026
:1023F0008DF80400002081490870012101A8FFF731
:10240000A9FB1EE07E4800788DF804007C48008817
:10241000000A8DF805007A480068000C8DF8060067
:1024200077480068000E8DF8070002AA80217448E2
:10243000006800F029F9842101A8FFF78BFB00E078
:1024400000BF00BF00BF33B030BD10B5044620460A
:10245000FFF791FD20B36548001F4078AA2804D0FB
:102460006248001F4078BB281BD16048001F80785D
:1024700065490978884206D05C49091F087800211F
:10248000FFF7E8FC0EE05948001F4078AA2805D164
:102490005649091F08780121FFF7DCFCFFF711FE00
:1024A00000E010BD00BFFCE70021584A11604FF06A
:1024B000006006E00178554A12681144534A1160E1
:1024C000401C4B498842F5D3704710B5002047495E
:1024D000091F08708870C8704870464908604C49E8
:1024E0000870494908704B490870444908704248CF
:1024F0000078012802D14049087002E000203E49DE
:1025000008704FF000603E49086000203E490870A6
:1025100040F22B1402E00021344801552000A4F1C0
:102520000104F8D1FFF7C0FF10BDFFF7CEFFFFF7A2
:10253000AFFCFFF7F6FC04E0FFF7D6FA0446FFF71E
:1025400084FFF9E701202C490870FFF7EEFF08B57A
:1025500000200090FFF7A8FFFFF7A9FD00906A4652
:102560000421234800F09AF8FFF7F2FC10B588B078
:102570000020294908600024012080F3108800BF52
:10258000FEF7D4F81A48406800900098401C01D02B
:10259000009808B9FFF7C9FF002411E004F15400C6
:1025A000134951F820004DF824005DF824001B4920
:1025B00051F82410884201D0FFF7B7FF601CC4B265
:1025C000082CEBDB0A48006800900098401C01D101
:1025D000FFF7BDFFFFF76BFD0F4908600098096822
:1025E000884201D0FFF7A1FF08B010BD20000020F5
:1025F00000300008100000200D0000200C0000201A
:10260000080000200000020805000020180000203B
:102610000400002006000020140000202C2A0008DE
:1026200010B503E010F8013B01F8013B1300A2F1E3
:102630000104A2B2F6D110BD10B5FEF750F9352055
:10264000FEF7E8FB10BD2DE9F04105460024012608
:102650003A274FF00408FFF7EFFF00BF0CE04FF4FC
:10266000006101FB0450FEF77FF98046B8F1040FCA
:1026700001D0002602E0641CBC42F0D300BFFEF78C
:102680003AF93046BDE8F08170B506460C4615466D
:10269000A2B229463046FFF7C3FF70BD2DE9F74FC0
:1026A000ADF5825D0D4692464FF0000B00210F9173
:1026B0000E910D91894601210C9104210B910DF58C
:1026C0008050016C0F468846FFF7B6FF7805400D35
:1026D0007CD0C8F30A002844B0F5006F77D9C7F35F
:1026E0000A01781A0DF504624FF40061FFF7CCFF80
:1026F000C7F30A01C1F50062C7F30A010DF50463CF
:10270000C8185146FDF714FF21E04FF400790DF58C
:102710000464C7F30A003E1A13E030462168FEF74E
:10272000F3F930682168884209D0FEF7E4F8002107
:102730000C910C9813B00DF5805DBDE8F08F241D51
:10274000361D5FEA0900A9F10109E6D105E0384626
:10275000FEF70AF90B998842D7D000BFC8F30A00E8
:10276000C0F500602D1AC7F30A00C0F500600744E9
:102770006805400D3BD010AA4FF400613846FFF7C2
:1027800083FFC8F30A030AF50060C01A2844C5F3A2
:102790000A03C11AC5F30A0210A8FDF7C9FE1FE01B
:1027A0004FF4007910AC7819C5F30A01461A11E00C
:1027B00030462168FEF7A8F930682168884207D0C2
:1027C000FEF799F800210C910C98B3E786E04CE0F5
:1027D000241D361D5FEA0900A9F10109E8D105E0D1
:1027E0007819FEF7C1F80B998842D9D000BFC5F31C
:1027F0000A002D1A4FEAD52B00210D910AE04FF463
:1028000000620D9902FB0170FEF7AEF80B900D9877
:10281000401C0D900D98584502D20B980428EED01C
:10282000C8F30A010AF50060441A3E4617E04FF467
:1028300000790FE030462168FEF766F930682168BC
:10284000884205D0FEF757F800210C910C9871E7EB
:10285000241D361D5FEA0900A9F10109EAD15FEAEA
:102860000B00ABF1010BE2D1C9E0C8F30A01A8EB00
:1028700001000DF504624FF40061FFF705FFC7F397
:102880000A010DF5046288182A465146FDF750FEEC
:102890001DE04FF400790DF50464C7F30A003E1AF9
:1028A0000FE030462168FEF72FF930682168884232
:1028B00005D0FEF720F800210C910C983AE7241D72
:1028C000361D5FEA0900A9F10109EAD105E03846A1
:1028D000FEF74AF80B998842DBD090E07919C5F3EE
:1028E0000A02881A0DF504624FF40061FFF7CCFE6E
:1028F0000AEB0500C5F30A03C11AC5F30A020DF578
:102900000460FDF715FE6805400D02D14FEAD52B96
:1029100002E0012000EBD52BCDF83CB000210D9159
:102920000AE04FF400620D9902FB0180FEF71CF8EB
:102930000B900D98401C0D900D98584502D20B98A5
:102940000428EED0BBF1010F1BD14FF400790DF537
:10295000046446460FE030462168FEF7D5F830683B
:102960002168884205D0FDF7C6FF00210C910C9824
:10297000E0E6241D361D5FEA0900A9F10109EAD14C
:102980003DE05446464617E04FF400790FE03046EC
:102990002168FEF7B9F830682168884205D0FDF754
:1029A000AAFF00210C910C98C4E6241D361D5FEA95
:1029B0000900A9F10109EAD10F99481E0F900129D8
:1029C000E2D80DF50464ABF1010008EBC0264FF42A
:1029D00000790FE030462168FEF796F830682168EC
:1029E000884205D0FDF787FF00210C910C98A1E6E5
:1029F000241D361D5FEA0900A9F10109EAD1FDF79E
:102A00007AFF0C9896E6000000000000000001022A
:102A10000304060708090000000001020304010284
:102A2000030406070809020406080000674523019D
:102A300078563412896745239A785634AB896745AE
:102A4000BC9A7856CDAB8967DEBC9A783031323388
:102A500034353637383941424344454600A24A04AA
:102A60000000000000000000000000000000000066
:082A700000000000000000005E
:020000040800F2
:10300000FFFFFFFF71310008D1690008DB6900088C
:10301000E9690008F3690008F7690008000000008A
:10302000000000000000000000000000FB69000834
:10303000FD69000800000000FF690008BD79000874
:103040008731000887310008873100088731000880
:103050008731000887310008873100085185000852
:103060008731000887310008873100088731000860
:103070008731000887310008873100088731000850
:103080008731000887310008873100080BA5000848
:1030900057A80008873100085FA80008873100089A
:1030A0008731000887310008873100088731000820
:1030B0008731000887310008873100088731000810
:1030C0008731000887310008873100088731000800
:1030D00087310008CB7E000887310008873100085F
:1030E00087310008873100088731000800000000A0
:1030F00000000000000000000000000000000000D0
:10310000000000000000000087310008873100083F
:1031100087310008873100088731000887310008AF
:10312000873100088731000887310008873100089F
:103130008731000887310008873100089393000821
:10314000DF96000887310008E796000887310008FD
:103150006745230178563412896745239A78563497
:10316000AB896745BC9A7856CDAB8967DEBC9A7847
:1031700005480047FEE7FEE7FEE7FEE7FEE7FEE75D
:0C318000FEE7FEE7FEE7FEE70133000873
:020000040800F2
:103200000248704702487047024870476A32000817
:103210006832000840320008000000000000000092
:10322000000000000000000000000000000000009E
:10323000000000000000000000000000000000008E
:1032400051373031344E4E542D2D2D2D2D2D2D56E0
:10325000312E3036000000000000000000000000A9
:1032600000000000000000005800536F66742050FA
:103270006C6174666F726D3A20582D4F4E450D0A81
:103280004275696C642074696D653A204D617220E5
:10329000323720323031372831373A33333A30330E
:1032A000290D0A53544D33322D4E4F5F5359535409
:0832B000454D0D0A000000006D
:020000040800F2
:10330000DFF80CD008F050FF0048004751C100081A
:1033100000FE002031490143314A1160704770B509
:10332000002100230F22C4780CB32D4C246804F430
:10333000E064C4F5E064210AC1F10403CA404478A2
:1033400004FA03F18478144021430901254C0678DE
:10335000A155047804F01F050124AC4005786D11D7
:103360004FF0E02606EB8505C5F8004109E004783A
:1033700004F01F050124AC401B4D0678761145F87A
:10338000264070BD194A0A400243154B1B1F1A60A4
:10339000704739B1124A121D12680243104B1B1DAF
:1033A0001A6006E00E4A121D126882430C4B1B1D68
:1033B0001A607047042808D14FF0E021096941F0F4
:1033C00004014FF0E022116107E04FF0E0210969AC
:1033D00021F004014FF0E022116170470000FA056E
:1033E0000CED00E000E400E080E100E080FFFF1F62
:1033F00010B50446FA48844208D101214015FEF771
:103400001DF900216015FEF719F917E0F54884420F
:1034100008D101210015FEF711F900212015FEF752
:103420000DF90BE0F048844208D10121C803FEF7F2
:1034300005F900214FF40040FEF700F910BD30B54A
:103440000246002000235068E84C20400D790C68AB
:1034500044EA0524204350609068E54C2040D1E9BF
:1034600002542C434D7944EA450420439060D06ACD
:1034700020F470000C7C641EE4B2234340EA035045
:10348000D06230BD00210160017141718160C16075
:1034900001210174704721B1826842F0010282600B
:1034A00003E0826822F001028260704721B18268E5
:1034B00042F48072826003E0826822F4807282604B
:1034C000704710B50023CBB21AB144681C43446066
:1034D00002E044689C43446010BD816841F00801EB
:1034E00081607047014600208A6812F0080F01D001
:1034F000012000E000207047816841F004018160F4
:103500007047014600208A6812F0040F01D00120A4
:1035100000E00020704721B1826842F4A00282607E
:1035200003E0826822F4A002826070470146002016
:103530008A6812F4800F01D0012000E0002070475B
:1035400010B50A4600210023416821F46041531E52
:1035500041EA4331416010BD21B1426842F400624A
:10356000426003E0426822F4006242607047F0B5B6
:1035700004460D4600200021092D11DDE068A5F16B
:103580000A0606EB4607072606FA07F18843A5F167
:103590000A0606EB460603FA06F10843E0600CE073
:1035A000206905EB4507072606FA07F1884305EB76
:1035B000450603FA06F108432061072A0FDA606B1B
:1035C000561E06EB86071F2606FA07F18843561E8D
:1035D00006EB860605FA06F10843606322E00D2A31
:1035E0000FDA206BD61F06EB86071F2606FA07F1B7
:1035F0008843D61F06EB860605FA06F108432063CA
:1036000010E0E06AA2F10D0606EB86071F2606FA17
:1036100007F18843A2F10D0606EB860605FA06F1CE
:103620000843E062F0BD21B1826842F480128260FA
:1036300003E0826822F48012826070470146C86C01
:1036400080B2704766484C300068704721B14268CC
:1036500042F48062426003E0426822F48062426089
:10366000704721B1426842F48052426003E04268F0
:1036700022F48052426070470A460021816821F49A
:10368000E04111438160704721B1826842F40042F9
:10369000826003E0826822F400428260704721B1B8
:1036A000826842F40212826003E0826822F402120D
:1036B00082607047014600208A6812F4001F01D022
:1036C000012000E000207047F0B5044615460020B8
:1036D00000220026092911DDE068A1F10A0707EBA5
:1036E000470C072707FA0CF29043A1F10A0707EBF2
:1036F000470703FA07F21043E0600CE0206901EB92
:10370000410C072707FA0CF2904301EB410703FA3B
:1037100007F210432061A06BC0F30156EF1C06F1C5
:10372000010CA7EB0C0707EB870C1F2707FA0CF21D
:103730009043EF1C06F1010CA7EB0C0707EB870782
:1037400001FA07F21043A063F0BD10B50A4600214C
:103750000023816B21F44011531E41EA0351816320
:1037600010BD08B5002300930090009B0B4400930C
:10377000009B1A6008BD08B5024600200090009228
:1037800001F12800009B184400900098006880B266
:1037900008BD0A4600214168164B1940114341609B
:1037A00070474162826270470A460021416821F0F9
:1037B0001F0111434160704740B109490831096850
:1037C00041F40001064A0832116007E0044908315B
:1037D000096821F40001024A0832116070470000B4
:1037E0000024014000280140003C0140FFFEF0FFA2
:1037F000FDF7F1FFFFFD3FFF0246002013680B427B
:1038000001D0012000E000207047CA4302607047E9
:1038100070B502460020002300240B125568CEB27A
:1038200005EA060415681D4202D00CB1012000E033
:10383000002070BD00220A12D343036070470000CD
:1038400010B50120FDF714FF0020FDF711FF10BD9A
:103850002A49086070472949091F086070472749AD
:1038600084310860704701460020254A10884FF6D1
:103870007F4210400843224A1080704701460020D2
:103880001F4A10884FF68072104008431C4A10806F
:10389000704708B500220092194A2C3A0092009A0B
:1038A00002440092009A116008BD08B5014600204C
:1038B000009013482C38009000980844009000981D
:1038C000008808BD0D489C300068C0B270470C48A5
:1038D0000830008840F0010009490831088070472D
:1038E0000648A0300068C0B270470548083000881C
:1038F00040F00200024908310880704704860D42FA
:103900002C6C004010B50446FE48844209D10121C8
:103910004806FDF7A0FE00214FF00070FDF79BFE6A
:1039200008E001218806FDF796FE00214FF0806037
:10393000FDF791FE10BD30B502460020002314684B
:1039400024F002041460146844F00104146000E0E0
:103950005B1C546814F0010F03D1A3F57F44FF3CB6
:10396000F6D1546814F0010F01D100206CE08C797D
:10397000012C04D1146844F08004146003E014683E
:1039800024F080041460CC79012C04D1146844F034
:103990004004146003E0146824F0400414600C7ABE
:1039A000012C04D1146844F02004146003E014686E
:1039B00024F0200414604C7A012C04D1146844F0E3
:1039C0001004146003E0146824F0100414608C7A6E
:1039D000012C04D1146844F00804146003E0146856
:1039E00024F008041460CC7A012C04D1146844F04B
:1039F0000404146003E0146824F0040414608C7858
:103A0000A407CD7844EA05640D7944EA05444D796C
:103A100044EA05540D886D1E2C43D461146824F0CB
:103A200001041460002300E05B1C546814F0010FD3
:103A300003D0A3F57F44FF3CF6D1546814F0010F86
:103A400001D0002000E0012030BD10B50021837AB4
:103A5000012202FA03F1AC4A126842F00102AA4BB9
:103A60001A601A46126843F60E739A43A64B1A6000
:103A70001A46126842F460621A60A34A1C32126845
:103A80008A43A14B1C331A60027BCAB99E4A0C328E
:103A900012688A439C4B0C331A604288C38842EAFE
:103AA0000343994A4032847A42F83430028883884A
:103AB00042EA0343944A4032847A02EBC4025360E0
:103AC000027B012A19D1904A0C3212680A438E4BAC
:103AD0000C331A604288038842EA03438A4A403220
:103AE000847A42F83430C288838842EA0343864AA3
:103AF0004032847A02EBC4025360C27A3AB9824AF5
:103B0000121D12688A43804B1B1D1A6006E07E4A14
:103B1000121D12680A437C4B1B1D1A60028932B9C0
:103B2000794A143212688A43774B14331A60028937
:103B3000012A06D1744A143212680A43724B1433B4
:103B40001A60427B012A06D16F4A1C3212680A436E
:103B50006D4B1C331A606C4A126822F001026A4BEA
:103B60001A6010BD00218171C171017241728172B0
:103B7000C1728170C1700321017102214171012163
:103B8000018070476049096841F001015E4A116097
:103B90001146096843F60E7291435B4A1160114663
:103BA000096841EA002111601146096821F001010C
:103BB0001160704721B1026842F48032026003E074
:103BC000026822F4803202607047E1B1026842F07C
:103BD000800202604FF4C272125842F480734FF4B4
:103BE000C27213504FF4CA72125842F480734FF4E9
:103BF000CA7213504FF4D272125842F480734FF4C9
:103C0000D27213501BE0026822F0800202604FF46F
:103C1000C272125822F480734FF4C27213504FF4E0
:103C2000CA72125822F480734FF4CA7213504FF4C0
:103C3000D272125822F480734FF4D272135070472C
:103C400010B502460020936803F08063B3F1806FE3
:103C500000D110E0936803F00063B3F1006F01D16D
:103C6000012008E0936803F08053B3F1805F01D135
:103C7000022000E00420042879D002F5C07303EB91
:103C800000131B6803F0010402F5C07303EB00137B
:103C90001C600B7A7BB94B7A0C8843EA445302F5DB
:103CA000C07404EB00142468234302F5C07404EBD1
:103CB0000014236010E00B7A4C6843EAC4034C7A8A
:103CC000234302F5C07404EB00142468234302F577
:103CD000C07404EB001423608B7A03F00F038B7223
:103CE00002F5C07303EB00135B6823F00F0402F5C9
:103CF000C07303EB00135C6002F5C07303EB0013A9
:103D00005B6803E000640040006600408C7A234357
:103D100002F5C07404EB001463608B7B1C064B7BC4
:103D200044EA03440B7B44EA0323CC7A234302F5A1
:103D3000C07404EB0014A3608B7C1C064B7C44EA2B
:103D400003440B7C44EA0323CC7B234302F5C07479
:103D500004EB0014E36002F5C07303EB00131B686F
:103D600043F0010402F5C07303EB00131C6010BDA7
:103D700010B50246002021B1012907D002290FD138
:103D800009E09368F74C03EA04000BE09368F64CF3
:103D900003EA040006E09368F44C03EA040001E03F
:103DA000002000BF00BFF24C031BA04216D007DC6E
:103DB00080B16FF08063C3180ED0022B18D111E0D0
:103DC000B3F5007F10D0EB4C1B1909D0B3F5003FC1
:103DD0000ED10BE002200DE000200BE0002009E0F6
:103DE000002007E0012005E0012003E0012001E0C0
:103DF000002000BF00BF10BD21B1012907D002295A
:103E00000FD109E0826842F0800282600AE0826895
:103E100042F40042826005E0826842F4000282605F
:103E200000E000BF00BF704710B500F5D87303EB8A
:103E300001131B6803F004031372137A53B900F5DE
:103E4000D87303EB01131B6840F2FF7404EA535369
:103E5000136009E000F5D87303EB01131B686FF0E2
:103E6000604404EAD303536000F5D87303EB0113F5
:103E70001B6803F00203537200F5D87303EB0113C0
:103E80005B6803F00F03937200F5D87303EB011323
:103E90005B681B0AD37400F5D87303EB01139B68AE
:103EA000D37200F5D87303EB01139B681C0A1473DB
:103EB00000F5D87303EB01139B681C0C547300F5D9
:103EC000D87303EB01139B681B0E937300F5D87333
:103ED00003EB0113DB68D37300F5D87303EB011315
:103EE000DB681C0A147400F5D87303EB0113DB685C
:103EF0001C0C547400F5D87303EB0113DB681B0E24
:103F0000937421B9C36843F02003C36003E00369DD
:103F100043F02003036110BD21B9C26842F02002C2
:103F2000C26003E0026942F020020261704702466B
:103F3000002019B9D36803F0030006E0012903D17A
:103F4000136903F0030000E00020704710B502463B
:103F50000B4600204FF6FF71BBB9146824F0020431
:103F600044F00104146000E0491E546804F00304A6
:103F7000012C01D00029F7D1546804F00304012C6E
:103F800001D0002032E0012030E0012B13D1146871
:103F900024F00304146000E0491E546814F0030F79
:103FA00001D00029F8D1546814F0030F01D000208B
:103FB0001CE001201AE0022B17D1146824F0010440
:103FC00044F00204146000E0491E546804F0030445
:103FD000022C01D00029F7D1546804F00304022C0C
:103FE00001D0002002E0012000E0002010BD0146C9
:103FF00000200A6822F0010242F002020A604A68C8
:1040000002F00302022A00D10120704701464FF658
:10401000FF7200200B6823F002030B6000E0521EC9
:104020004B6803F00203022B01D1002AF7D14B6841
:1040300003F00203022B00D001207047014600204C
:104040008A6902F070007047014600208A69100EEC
:104050007047014600208A69C2F3074070471AB1D1
:1040600043690B43436102E043698B4343617047FB
:1040700010B50246002011F4700F08D09369C1F307
:104080001304234201D001202DE000202BE011F089
:10409000807F08D05368C1F31304234201D001206C
:1040A00021E000201FE011F0006F08D09368C1F3F9
:1040B0001304234201D0012015E0002013E011F089
:1040C000007F08D0D368C1F31304234201D001203C
:1040D00009E0002007E01369C1F31304234201D073
:1040E000012000E0002010BD0022234B994202D1A4
:1040F0000023836111E0C1F3130211F0007F01D0AE
:10410000C2600AE011F0806F01D0026105E011F099
:10411000006F01D0826000E04260704702460020DC
:104120000A4201D0012000E00020704770B504462B
:104130000D4600266069284271D0B5F5807F68D0B1
:104140001CDC082D41D006DC012D2CD0022D30D0F6
:10415000042D7ED133E0102D3DD0202D41D0402DB7
:1041600077D144E0030000040003000800000310BE
:10417000000100080001FFF77000F030B5F5004FB6
:1041800061D009DCB5F5007F4AD0B5F5806F4DD020
:10419000B5F5006F5DD150E0B5F5803F2DD0B5F598
:1041A000003F56D12FE0A0685549FFF7B7FF0646FC
:1041B00051E0E0680321FFF7B1FF06464BE0E068FD
:1041C0000821FFF7ABFF064645E0E0681021FFF746
:1041D000A5FF06463FE020690321FFF79FFF064643
:1041E00039E020690821FFF799FF064633E020698E
:1041F0001021FFF793FF06462DE060680821FFF7C6
:104200008DFF064627E060681021FFF787FF06460E
:1042100021E0A0690121FFF781FF06461BE01BE0BA
:10422000A0690221FFF77AFF064614E0A069042185
:10423000FFF774FF06460EE00BE0A0697021FFF760
:104240006DFF064607E060680421FFF767FF06463A
:1042500001E0002600BF00E00026304670BDB1F549
:10426000007F3AD00FDC202928D006DC01291CD0A1
:1042700004291DD0082940D11DE0402921D0B1F5E5
:10428000807F3AD126E0B1F5004F31D006DCB1F5A0
:10429000806F25D0B1F5006F2FD124E0B1F5803FBC
:1042A00012D0B1F5003F28D111E0154A826025E017
:1042B0000822C26022E01022C2601FE008220261D0
:1042C0001CE01022026119E00822426016E0102270
:1042D000426013E00422426010E0042242600DE0DC
:1042E000042242600AE0002282610422426005E06A
:1042F000002282610422426000E000BF00BF7047DC
:104300000101010010B501218807FDF7A4F9002182
:104310004FF08040FDF79FF910BD00213D4A126823
:1043200091B201F0F301028843881A431143394ADC
:10433000116070473849086028B900BF35490968DD
:1043400011F0010FFAD17047334948607047314985
:10435000091D086070472F490831086070472D49D2
:104360001431086070472B4818300068C0B270479D
:1043700001202A490860704729490860704710B534
:104380000146002000230022224A0B0F21F07F412A
:1043900013B1090C0C3200E0103214680C4201D049
:1043A000012000E0002010BD00211A4A10321268DE
:1043B00002F00201174A103213686FF003028243C1
:1043C0000A431340134A103213607047014600201D
:1043D0000022104B1B6803F002020E4B10331B68C7
:1043E0000B4202D00AB1012000E0002070470021FA
:1043F000084A1032126802F00201064A10321368AD
:104400006FF0030282430A431340024A10321360E2
:10441000704700000078004000000F4200020F4289
:1044200004020F42012010498860704701460E487F
:1044300001600068704710B502460B46002100BFBE
:1044400004E052F82100084C2060491C9942F8D33E
:104450000548006810BD04480068704702490871AB
:1044600070470148007970470030024010B50121C3
:104470004807FDF7F0F800214FF00050FDF7EBF88A
:1044800010BD30B5002200235A4C226840F6FE745D
:104490008440A243D1E900452C438D682C43CD686C
:1044A00044EA050303FA00F42243524C226030BD73
:1044B0000021016041608160C160704739B14D4A9F
:1044C0001268012383401A434A4B1A6006E0494AA6
:1044D0001268012383409A43464B1A60704741B1EA
:1044E000444A12684FF4805383401A43414B1A6088
:1044F00007E0404A12684FF4805383409A433D4B93
:104500001A60704710B551B13A4A121D1268040979
:104510000123A3401A43374B1B1D1A6009E0354A9B
:10452000121D126804090123A3409A43314B1B1D3D
:104530001A6010BD40B12F49091D096841F00301FF
:104540002C4A121D116007E02A49091D096821F053
:104550000301284A121D1160704710B53AB1254B6E
:104560001B6801FA00F42343224C236006E0214B30
:104570001B6801FA00F4A3431E4C236010BD08B56C
:10458000002200921B4A009200F10802009B1A448C
:104590000092009A116008BD08B500220092154AE9
:1045A000009200F11402009B1A440092009A1160DC
:1045B00008BD30B500240023082802D142EA0124B6
:1045C00001E042EA01440B4B00F120052B441C6042
:1045D00030BD08B5014600200090064800902C2010
:1045E00000EB9100009A104400900098006880B29F
:1045F00008BD0000007400400A480068000C7047C5
:1046000008480068C0F30B00704729B1054A52689A
:104610000243044B5A6004E0024A52688243014B51
:104620005A607047002004E001684FF6FE721140A6
:1046300001600021016041608160C1608C49884255
:1046400008D18B490839496841F00F01884A083A76
:1046500051608AE086491431884208D1844908397A
:10466000496841F0F001824A083A51607DE0804992
:104670002831884208D17E490839496841F470617F
:104680007B4A083A516070E079493C31884208D150
:1046900077490839496841F47041754A083A5160D0
:1046A00063E073495031884208D17149083949683B
:1046B00041F470216E4A083A516056E06C49643109
:1046C000884208D16A490839496841F47001684A4A
:1046D000083A516049E066497831884208D1644916
:1046E0000839496841F07061614A083A51603CE01C
:1046F0006049884206D1011F096841F00F01021F7D
:10470000116032E05B491431884208D15949091FD0
:10471000096841F0F001574A121F116025E0554920
:104720002831884208D15349091F096841F4706152
:10473000504A121F116018E04E493C31884208D19E
:104740004C49091F096841F470414A4A121F11601F
:104750000BE048495031884207D14649091F096892
:1047600041F47021434A121F1160704710B50022B6
:10477000026847F6F0739A430C6A8B6823430C690E
:1047800023434C6923438C692343CC6923434C6AFC
:1047900023438C6A23431A430260CB6843600B684F
:1047A00083604B68C36010BD00210160416081607F
:1047B000C160016141618161C161016241628162E7
:1047C000704721B1026842F00102026004E0026811
:1047D0004FF6FE731A40026070471AB103680B432C
:1047E000036002E003688B430360704741607047D9
:1047F0000146486880B2704701460020002211F04F
:10480000805F03D01B4B083B1A6802E0184B083B43
:104810001A680A4201D0012000E00020704710F021
:10482000805F03D01349091F086002E0104908396E
:104830004860704701460020002211F0805F03D0DD
:104840000C4B083B1A6802E0094B083B1A680A4205
:1048500001D0012000E00020704710F0805F03D0FD
:104860000449091F086002E001490839486070479F
:104870000800024008040240002044490860091D65
:104880000860091D0860091D086041483F4914314E
:104890000860704700213D498279002A3AD00A46D3
:1048A000126803689A430B461A600A1D126803686F
:1048B0009A430B1D1A60027911440A6803681A436F
:1048C0000A60324A0832126803689A432F4B083351
:1048D0001A601A1D126803689A432C4B0C331A6035
:1048E0004279102A0ED11A1F126803681A43274B07
:1048F00008331A601A1D126803681A43234B0C33DD
:104900001A600DE02149427911440A6803681A438C
:104910000A6005E0027911440A6803689A430A6054
:1049200070470021016001710C21417100218171EA
:1049300070471649103109680143144A103211605A
:10494000704701460020114A143212680A4201D011
:10495000012000E0002070470C49143108607047C6
:10496000014600200022094B1B6803EA0102074BA5
:1049700014331B680B4202D00AB1012000E0002072
:10498000704702491431086070470000000401407C
:10499000FFFF0F0030B943F2DB014FF0204242F835
:1049A000201005E043F2D2014FF0204242F82010DF
:1049B0006FF07042411C4FF0204343F82120114614
:1049C0001A4602EB8002C2F80411704710280AD17F
:1049D00018214FF020421166402151664FF0FC3102
:1049E0009166D16610E01821F84A11604FF040013D
:1049F0004FF02042C2F884104FF0FC31F44A1160AD
:104A00004FF02042C2F88C1070471820F14908601E
:104A10004FF000004FF02041C1F8A4004FF0FC30EF
:104A2000ED49086001F10401086001F1040108602A
:104A30007047D0E901121143C26811430269114362
:104A40004269114382691143C2691143026A1143E9
:104A5000426A1143826A1143C26A1143026B1143D5
:104A60004FF02043026843F822108168082908D1DA
:104A70001A46016852F8211041F04001026843F8DB
:104A80002210416B0968426B526841EA0211426B85
:104A9000926841EA0221426B928941EA0241426BEB
:104AA000128A41EA0251426B127D41EA0261426B75
:104AB000926911430268521C4FF0204343F82210C0
:104AC000C16AB1F5804F1AD1816B0968826B526857
:104AD00041EA0211826B926841EA0221826B128ADA
:104AE00041EA0251826B127D41EA0261826B926956
:104AF0001143026803EB8202C2F8041108E06FF070
:104B000070414FF02043026803EB8202C2F80411A7
:104B1000704730B5002100220023446844F00804A7
:104B200085682C43C5682C4305692C43456944EAD4
:104B30004524856944EA4531C4692468C5696D68BE
:104B400044EA0524C5692D8944EA0544C5692D7BDD
:104B500044EA0562046A2468056A6D6844EA05242B
:104B6000056A2D8944EA0544056A2D7B44EA0563FC
:104B70000468102C05D14FF020442166A266E3663C
:104B800007E0924C21604FF02044C4F88820934CF9
:104B9000236030BD016841F01001426841EA4221C2
:104BA000826841EA42318B4A1160C1680968C26873
:104BB000526841EA0221C268128941EA0241C26890
:104BC000127B41EA0261844A116001690968026945
:104BD000526841EA02210269128941EA02410269EE
:104BE000127B41EA02617E4A1160416909684269AB
:104BF000526841EA02214269128941EA024142694E
:104C0000127B41EA02614FF02042C2F8B0107047B7
:104C1000002101600221416000218160C1600161C9
:104C200041618161C16101624FF48051416249007B
:104C300081620021C16201630F21426B1160426BEE
:104C40005160FF21426B91600F21426BD160426B3A
:104C50001161426B51610021426B91610F21826BA6
:104C60001160826B5160FF21826B91600F21826B1A
:104C7000D160826B1161826B51610021826B916105
:104C8000704710210160002141608160C1600161B5
:104C900041618161FC21C2691160C2695160C269D0
:104CA0009160C269D160026A1160026A5160026A51
:104CB0009160026AD16070470021016041608160AB
:104CC000FC21C2681160C2685160C2689160C2680C
:104CD000D1600269116002695160026991600269E4
:104CE000D1604269116042695160426991604269D4
:104CF000D160704751B14FF0204252F8202042F06D
:104D000001024FF0204343F8202009E04FF02042F9
:104D100052F82020334B1A404FF0204343F8202014
:104D2000704799B1102808D14FF02042126E42F01E
:104D300004024FF020431A661DE0244A126842F034
:104D400004024FF02043C3F8802014E0102809D15A
:104D50004FF02042126E234BDB1E1A404FF02043CF
:104D60001A6608E0194A12681F4B02EA03024FF064
:104D70002043C3F88020704740B11649096841F0CC
:104D800004014FF02042C2F8A01008E01149096860
:104D9000154A01EA02014FF02042C2F8A010704704
:104DA00099B1102808D14FF02042126E42F0400213
:104DB0004FF020431A662DE0044A126842F0400288
:104DC0004FF02043C3F8802024E00FE0800000A0D3
:104DD000880000A0A00000A0A80000A08C0000A0F7
:104DE000AC0000A0FEFF0F00FBFF0F00102808D151
:104DF0004FF02042126E684B1A404FF020431A6663
:104E000008E0664A1268644B02EA03024FF020434E
:104E1000C3F88020704701460020102903D14FF0CD
:104E20002042506F01E05E4A1068704710B5F2B141
:104E3000102807D14FF020435B6E0B434FF0204406
:104E4000636632E0B0F5807F08D1564B1B6843EAB9
:104E500001034FF02044C4F8843026E0524B1B6815
:104E600043EA01034FF02044C4F8A4301DE01028A9
:104E700007D14FF020435B6E8B434FF020446366B5
:104E800013E0B0F5807F08D1464B1B6823EA01038D
:104E90004FF02044C4F8843007E0434B1B6823EAFA
:104EA00001034FF02044C4F8A43010BD10B50246F1
:104EB00000200023102A03D14FF02044636E07E046
:104EC000B2F5807F02D1374C236801E0364C23686D
:104ED0000B4201D0012000E0002010BD102807D1B6
:104EE0004FF02042526E8A434FF020435A6613E03F
:104EF000B0F5807F08D12B4A126822EA01024FF0F8
:104F00002043C3F8842007E0274A126822EA0102FE
:104F10004FF02043C3F8A420704770B5024600202C
:104F2000002300240025102A03D14FF02046736E81
:104F300007E0B2F5807F02D11A4E336801E01A4EC5
:104F4000336803EA010403EAD10514B10DB101206D
:104F500000E0002070BD102808D14FF02042526EB2
:104F600022EAD1024FF020435A6613E0B0F5807F69
:104F700008D10C4A126822EAD1024FF02043C3F84C
:104F8000842007E0084A126822EAD1024FF0204349
:104F9000C3F8A42070470000BFFF0F00800000A0EE
:104FA000940000A0840000A0A40000A010B5044656
:104FB000F748844209D101214805FCF74CFB002148
:104FC0004FF40010FCF747FB08E001218805FCF7CF
:104FD00042FB00214FF48000FCF73DFB10BD2DE9A2
:104FE000F04385B004460D460026B1460427DFF89D
:104FF000A483A6884FF6C07006406846FCF712FAF4
:10500000DDF80880E448B8FBF0F01FFA80F946EAC2
:105010000906A68020884FF6FE71084020800026F1
:10502000DE49286888420CD828684000B8FBF0F0B8
:1050300087B2042F00DA04273E4309F101002084DF
:1050400027E0E888A0F53F41FF3906D1286800EB4A
:105050004000B8FBF0F087B209E0286800EBC0011F
:1050600001EB0010B8FBF0F087B247F48047380539
:10507000000D01D147F0010747F4004006434FF40B
:10508000967009FB00F04FF47A7190FBF1F0401C30
:105090002084A683208840F00100208026884FF6D7
:1050A000F5300640A8886989084306432680A88908
:1050B00029890843208105B0BDE8F08341F2883199
:1050C0000160002181804BF6FF71C18000210181C8
:1050D00041814FF480418181704721B1028842F0C3
:1050E0000102028004E002884FF6FE731A4002803B
:1050F000704721B1828842F40062828004E0828895
:105100004FF2FF731A408280704721B1828842F4C7
:105110008052828004E082884EF6FF731A408280BB
:10512000704721B1028842F48072028004E0028854
:105130004FF6FF631A400280704721B1028842F4A3
:105140000072028004E002884FF6FF531A4002808A
:10515000704721B1028842F48062028004E0028834
:105160004FF6FF331A40028070470A4600218189BA
:105170004FF60173194002F0FE0319438181704715
:1051800021B1828942F00102828104E082894FF6D6
:10519000FE731A408281704721B1028842F04002BA
:1051A000028004E002884FF6BF731A400280704705
:1051B0001AB183880B43838002E083888B4383800A
:1051C0007047018270470146088AC0B2704712B129
:1051D00041F0010102E04FF6FE7319400182704771
:1051E00008B5024600200090009200980844009004
:1051F0000098008808BD21B1028842F40042028074
:1052000003E00288C2F30E0202807047B1F5006F1E
:1052100004D1028842F40062028004E002884FF266
:10522000FF731A4002807047B1F5005F04D1028815
:1052300042F40052028004E002884DF6FF731A40E7
:105240000280704721B1028842F48052028004E05B
:1052500002884EF6FF731A4002807047B1F5006F66
:1052600004D1028842F40062028004E002884FF216
:10527000FF731A400280704721B1028842F0200279
:10528000028004E002884FF6DF731A400280704704
:105290000146088B0012704721B1028842F01002CB
:1052A000028004E002884FF6EF731A4002807047D4
:1052B00021B9028842F08002028004E002884FF6A1
:1052C0007F731A4002807047B1F5804F05D0828B02
:1052D0004BF6FF731A40828303E0828B42F48042D4
:1052E0008283704770B50246002400250023002009
:1052F000958A138B1B0445EA030626F07F4404EAD3
:1053000001068E4201D1012000E0002070BD10B5E1
:1053100001460020002300228B8A0A8B120443EAF4
:10532000020424F07F4010BD0CB50246002000238B
:105330000193009300920B0F019321F07F41019B99
:105340001BB1009B1433009303E0090C009B18333E
:105350000093009B1B680B4201D0012000E000205D
:105360000CBD002221F07F42D3438382704730B5C9
:10537000024600200023948801F0E06504EA15430A
:1053800021F07F41948A0C420AD04BB1012008E001
:105390000054004000127A0040420F00A086010035
:1053A000002030BD002221F07F42D343838270472A
:1053B0000E49086070470D49486070470B49886086
:1053C00070474AF6AA200949086070474CF6CC405D
:1053D00006490860704701460020044AD2680A4224
:1053E00001D0012000E000207047000000300040A4
:1053F00010B501210807FCF72EF900214FF080506D
:10540000FCF729F910BD294908627047274908614E
:10541000704701460020264A106820F0E00008434B
:105420001060704723490860704710B5024600209D
:105430001F4B186820F00300104318601E4B1B68B8
:1054400043F004031C4C2360012901D130BF00E06C
:1054500020BF194B1B6823F00403174C236010BDB9
:105460001348006840F004001149086008460068CD
:1054700040F0020008601048006840F004000E4947
:10548000086000BF00BF30BF704701460020084AD7
:1054900052680A4201D0012000E000207047044910
:1054A000096841EA8001024A1160704700000E421B
:1054B00000700040A0000E4210ED00E029B14F4AFC
:1054C000128802434D4B1A8004E04C4A12888243F2
:1054D0004A4B1A8070474948001D008840F0100070
:1054E0004649091D088070474448001D00884FF652
:1054F000EF7108404149091D0880704700213F486D
:105500001C300188001F008841EA0040704700B548
:105510000246FFF7E0FF100C384918310880091DDA
:105520000A80FFF7E1FF00BD00B50246FFF7D3FF99
:10553000C2F30340314908310880091D0A80FFF792
:10554000D3FF00BD00B50246FFF7C5FF100C2B4985
:1055500020310880091D0A80FFF7C6FF00BD00202A
:105560002649103109880907080B24491431098894
:105570000843704700BF2148001D008810F0200F2D
:10558000F9D070471D48001D00884FF6F77108409C
:105590001A49091D088000BF1848001D008810F036
:1055A000080FF9D0704701460020144A121D1288D6
:1055B0000A4201D0012000E0002070470F49091D78
:1055C000098881430D4A121D118070470146002051
:1055D0000A4A121D12880A40D0B2084A12880A42AA
:1055E00002D008B1012000E0002070470349091DE6
:1055F00009888143014A121D11807047002800402C
:1056000000206C49086048608860C8604862886211
:10561000C862694888630020C86370470021654AF2
:10562000516847F6FF629143027D83681A434368DD
:105630001A43C3681A4303681A4303691A431143A0
:105640005C4A5160704700210175016041608160D2
:10565000C160016170475949086070475549096840
:1056600021F00301534A116011460968014311609A
:1056700070475048006800F00300704729B14D4A58
:10568000D26B02434B4BDA6304E04A4AD26B82434B
:10569000484BDA6370474A49086070470021454B20
:1056A00002689A601A46D1686FF30A01D0E90123B3
:1056B0001A43C3681A4303691A4311433D4AD16030
:1056C00070470021016041608160C16001617047E5
:1056D00038480069C0B2704708B501460020009004
:1056E00034481430084400900098006808BD002138
:1056F000304B02685A6242689A621A46D16A21F0B7
:10570000F701D0E902231A4303691A4343691A4394
:105710001143284AD16270474FF0FF3101600021E8
:1057200041608160C1600161416170472148006B47
:1057300070472448006870472249086070471D4838
:10574000806C70471E491431086070471C4918313D
:10575000086070471A491C310860704718492031A9
:10576000086070471849086070471849086070471A
:1057700001218143164A116070471649086070473D
:10578000014600200B4A526B0A4201D0012000E082
:105790000020704707498863704701460020054A8A
:1057A000526B0A4201D0012000E0002070470149FD
:1057B0008863704700800140FF07C000A0003042AE
:1057C0008C05304280800140AC013042B001304253
:1057D000B4013042B801304210B50446CE4884428C
:1057E00008D101218014FBF729FF0021A014FBF749
:1057F00025FF16E0C948844208D101210014FBF7B7
:105800002AFF00212014FBF726FF0AE0C448844247
:1058100007D10121C013FBF71EFF0021E013FBF7A6
:105820001AFF10BD10B50022028802F441520B8805
:105830004C8823438C882343CC8823430C892343FF
:105840004C8923438C892343CC8923431A43028008
:10585000838B4FF2FF74234083830B8A038210BD36
:105860002DE9F04F85B006460C464FF0000A02279E
:105870004FF000084FF0010B0025A946B08B4FF206
:1058800040010840B08302203084B6F81CA0A06814
:10589000022801D100BF59E0A08810B94FF0010BD8
:1058A00001E04FF0020B9D48864202D14FF40035D3
:1058B00001E04FF480259B48C06A284219D09948DE
:1058C000C06AC0F30335052D03D90F2D01D2AD1CDD
:1058D00002E00F2D00D114259248C06AC0F30310D6
:1058E00000F101099048B0FBF9F068434FEA400924
:1058F00004E06846FBF796FDDDF80090E088B0F51F
:10590000007F0AD14FEA192000EB80004000A16817
:10591000B0FBF1F0401D85B20BE04FEA4B10B9FB34
:10592000F0F000EB80004000A168B0FBF1F0401DFA
:1059300085B20A20B5FBF0F505F00108A5EB0800DB
:10594000C0F34F074FF6FF7000EA0828022F01DB73
:10595000FF2F02DD02274FF00008E08840EA080030
:1059600038433084A088A18908436188084321888E
:10597000084340F4006040EA0A0AA6F81CA005B0FB
:10598000BDE8F08F0021018041808180C1800181CC
:1059900041818181C18107210182704700210180FD
:1059A00041808180C1800221816000218181704716
:1059B00021B1028842F04002028004E002884FF6E2
:1059C000BF731A400280704721B1828B42F480621B
:1059D000828304E0828B4FF6FF331A408283704744
:1059E00030B5002400230C110125A540ABB21AB13B
:1059F00085881D43858002E085889D43858030BD74
:105A00001AB183880B43838002E083888B438380B1
:105A1000704781817047014688897047A1F57E42B1
:105A2000FF3A04D0028842F48072028004E00288C7
:105A30004FF6FF631A400280704721B1828842F01E
:105A40000402828004E082884FF6FB731A40828051
:105A5000704702884FF2FF731A40028002880A439F
:105A600002807047018841F480510180704721B164
:105A7000028842F40052028004E002884DF6FF736F
:105A80001A400280704702460020012901D0108B85
:105A900000E0908A70470146088A7047B1F5804F50
:105AA00004D1028842F48042028004E002884BF66E
:105AB000FF731A40028070470246002013890B4290
:105AC00001D0012000E000207047CA4302817047E6
:105AD000F0B50246002000240023002501F00F0746
:105AE0000126BE40B4B20B1101269E40B3B2968887
:105AF00006EA03051689264202D00DB1012000E016
:105B00000020F0BD10B5002201F00F040123A340D6
:105B10009AB2D343038110BD0030014000380040E9
:105B2000003C0040001002400024F40010B5044680
:105B3000FE48844208D10121C014FBF77FFD0021FB
:105B4000E014FBF77BFDC4E0B4F1804F08D10121E4
:105B50000846FBF780FD00210120FBF77CFDB8E043
:105B6000F348844208D101210220FBF774FD002193
:105B70000220FBF770FDACE0EE48844208D1012121
:105B80000420FBF768FD00210420FBF764FDA0E082
:105B9000E948844208D101210820FBF75CFD00217F
:105BA0000820FBF758FD94E0E448844208D1012125
:105BB0001020FBF750FD00211020FBF74CFD88E082
:105BC000DF48844208D101212020FBF744FD002159
:105BD0002020FBF740FD7CE0DA48844208D1012117
:105BE0004014FBF72BFD00216014FBF727FD70E04C
:105BF000D548844209D10121C804FBF71FFD0021CB
:105C00004FF40020FBF71AFD63E0D048844209D12D
:105C100001210805FBF712FD00214FF48010FBF76E
:105C20000DFD56E0CA48844209D101214805FBF721
:105C300005FD00214FF40010FBF700FD49E0C548C9
:105C4000844208D101214020FBF705FD00214020BE
:105C5000FBF701FD3DE0C048844208D101218020CE
:105C6000FBF7F9FC00218020FBF7F5FC31E0BB4895
:105C7000844208D101218015FBF7EDFC0021A0151D
:105C8000FBF7E9FC25E0B648844209D1012108046C
:105C9000FBF7D4FC00214FF48030FBF7CFFC18E079
:105CA000B048844209D101214804FBF7C7FC002118
:105CB0004FF40030FBF7C2FC0BE0AB48844208D144
:105CC00001218804FBF7BAFC00214FF48020FBF788
:105CD000B5FC10BD00220288944B98420ED0994B1F
:105CE00098420BD0B0F1804F08D0914B984205D02C
:105CF000904B984202D0904B984204D14FF68F734C
:105D00001A404B881A438D4B984207D08C4B9842CF
:105D100004D04FF6FF431A40CB881A4302808B8889
:105D200083850B880385814B98420BD0854B984225
:105D300008D08B4B984205D08A4B984202D08A4BB0
:105D4000984201D10B7A038601238382704770B594
:105D5000002400220023058C4FF6FE763540058492
:105D6000028C8388048B4FF68F752C40B51E2C4017
:105D70000D882C43751E2A400D892A434D882A43DD
:105D80006A4DA8420BD06F4DA84208D0744DA8426E
:105D900005D0744DA84202D0734DA84213D14FF6DE
:105DA000F7752A404D892A434FF6FB752A408D88A6
:105DB0002A434FF6FF652B404FF6FF552B408D8948
:105DC0002B43CD892B4383800483CD888586028431
:105DD00070BD70B5002400220023058C4FF6EF76CD
:105DE00035400584028C8388048B48F6FF752C406F
:105DF0004FF6FF452C400D884FF6FF7606EA052545
:105E00002C434FF6DF752A400D8906EA05152A4313
:105E10004D8806EA05152A43444DA84202D0494D53
:105E2000A8421DD14FF67F752A404D894FF6FF7667
:105E300006EA05152A434FF6BF752A408D8806EA03
:105E400005152A434FF6FF352B404FF2FF752B40C7
:105E50008D8906EA85052B43CD8906EA85052B4306
:105E600083800483CD880587028470BD70B50024CB
:105E700000220023058C4FF6FF6635400584028C16
:105E80008388848B4FF68F752C404FF6FC752C4021
:105E90000D882C434FF6FF552A400D894FF6FF76AB
:105EA00006EA05252A434D8806EA05252A431F4DA3
:105EB000A84202D0234DA8421DD14FF2FF752A40BF
:105EC0004D894FF6FF7606EA05252A434FF6FF3542
:105ED0002A408D8806EA05252A434EF6FF752B4099
:105EE0004DF6FF752B408D8906EA05152B43CD89AC
:105EF00006EA05152B4383808483CD888587028439
:105F000070BD70B5002200230024058C4EF6FF768C
:105F100035400584038C8488828B48F6FF752A40BF
:105F20004FF6FF452A400D8820E00000002C01407C
:105F30000004004000080040000C00400010004039
:105F40000014004000340140004C0140005001406A
:105F50000054014000180040001C00400020004098
:105F60000040014000440140004801404FF6FF76E8
:105F700006EA05252A434DF6FF752B400D8906EAF2
:105F800005352B434D8806EA05352B43FA4DA842CB
:105F900002D0FA4DA84208D14BF6FF752C408D89EE
:105FA0004FF6FF7606EA85152C4384808283CD88E0
:105FB000A0F84050038470BD828B4FF2FF331A402B
:105FC0008283828B4FF6FF7303EA01231A43828395
:105FD0007047F0B50C461546002200210026078CBC
:105FE0004EF6FF7C07EA0C070784828B018C4FF684
:105FF000FF7707EA043640F6FF473A404FF6FF774F
:1060000007EA05273A434FF6FF7707EA03373A4393
:10601000D94FB8420ED0D94FB8420BD0B0F1804F13
:1060200008D0D74FB84205D0D64FB84202D0D64F8D
:10603000B84206D14DF6FF77394046F480573943D0
:1060400005E047F6FF57394044F4805739438283CF
:106050000184F0BD828B4FF6F3731A408283828BEA
:106060000A4382837047F0B50C4615460022002192
:106070000026078C4FF6FF6C07EA0C070784828B1B
:10608000018C4FF6FF7707EA04264FF60C773A406B
:106090004FF6FF7707EA03172F433A43B64FB8424C
:1060A0000ED0B64FB8420BD0B0F1804F08D0B44FED
:1060B000B84205D0B34FB84202D0B34FB84206D170
:1060C0004FF6FF57394046F48077394305E04FF2E9
:1060D000FF57394044F48077394382830184F0BD0F
:1060E000028B4FF2FF331A400283028B4FF6FF738D
:1060F00003EA01231A4302837047F0B50C461546A4
:10610000002200210026078C4FF6EF7C07EA0C07DF
:106110000784028B018C4FF6FF7707EA041640F6DE
:10612000FF473A404FF6FF7707EA03373A434FF607
:10613000FF7707EA05273A438F4FB8420ED08F4FBB
:10614000B8420BD0B0F1804F08D08D4FB84205D087
:106150008C4FB84202D08C4FB84206D14FF6DF7751
:10616000394046F01007394305E04FF65F77394074
:1061700044F01007394302830184F0BD028B4FF6CF
:10618000F3731A400283028B0A4302837047F0B50F
:106190000C46154600220021068C4FF6FE773E4045
:1061A0000684028B018C4FF60C7632407E1C06EA88
